:100000000C94A0010C94D1010C94D1010C94D10159
:100010000C94D1010C94D1010C94D1010C94D10118
:100020000C94D1010C94D1010C94D1010C94D10108
:100030000C94D1010C94D1010C94D1010C94D101F8
:100040000C94D1010C94D1010C94D1010C94D101E8
:100050000C94D1010C94D1010C94D1010C94890918
:100060000C94D1010C94B70A0C948D0A0C94D10114
:100070000C94D1010C94D1010C94D1010C94D101B8
:100080000C94D1010C94D1010C94D1010C94D101A8
:100090000C94570A0C942D0A0C94D1010C94D101A4
:1000A0000C94D1010C94D1010C94D1010C94D10188
:1000B0000C94D1010C94D1010C94D1010C94D10178
:1000C0000C94D1010C94D1010C94D1010C94D10168
:1000D0000C94D1010C94D1010C94D1010C94D10158
:1000E0000C94D10166036403660368036A036A0320
:1000F0006E036C037B037B037B037B0370037B0337
:100100007B037B0372037B03770377036E037B031D
:100110007B037D037B037D037F038706B306ED0628
:1001200017075B07B607D7083309F3081609D20784
:10013000FA073309510877087B088408930C960C5A
:10014000850C890C8D0CCD0C9A0C9E0CA40CA80C63
:10015000AC0CB20CB60CBA0CCD0CC00CC40CC80C58
:100160000C94B20C0C94D3010C947F030C9484086F
:100170000C9464030C9477030C9451080C94CD0CEC
:100180000C9472030C9417070C949A0C0C945B0754
:100190000C94AC0C0C94B3060C94C80C0C946C032B
:1001A0000C94F3080C947D030C94ED060C947104EC
:1001B0000C948D0C0C94D2070C94B6070C94680325
:1001C0000C94D7080C94890C0C94F6010C94C40C74
:1001D0000C9477080C9404020C9487060C949E0CE3
:1001E0000C94BA0C0C94960C0C94A80C0C947B03F5
:1001F0000C9416090C9461060C946A030C94B60CCA
:100200000C94A40C0C947B080C9433090C94891066
:100210000C9466030C94FA070C94850C0C94450915
:100220000C94930C0C94E2010C9470030C94BE0497
:100230000C946E030C94C00C00000A0B02090C0D08
:100240000E08070304010000000000000000000089
:10025000000000000000000000000000000000009E
:10026000000000001211100000000000000000005B
:10027000000000000000000000000000000000007E
:100280002200250028002B002E003100340002013E
:100290000000050108010B010000210024002700D7
:1002A0002A002D0030003300010100000401070185
:1002B0000A010505050507050808080802020202EB
:1002C0000A0A0808040404040101010101010101F2
:1002D0000303030303030303040707070C0C0C0CBD
:1002E0000C0C0C0C020202020606060606060606A6
:1002F0000B0B0B0B0B0B0B0B010210202008081033
:100300002040102040800201020108040201010285
:10031000040810204080804020100804020180045E
:1003200002018040201008040201080402010102B9
:100330000408102040800102040810204080891029
:1003400011241FBECFEFD1E2DEBFCDBF00E00CBF56
:1003500025E0AAE6B2E001C01D92AC35B207E1F794
:1003600012E0A0E0B2E0E6E9FBE200E00BBF02C071
:1003700007900D92AA36B107D9F711E0C0EAD1E093
:1003800000E006C021970109802FFE010E94AB12F8
:10039000CF39D10780E00807A9F70E94070D0C9418
:1003A000C9150C940000FC01538D448D252F30E0BD
:1003B000842F90E0821B930B541710F0CF96089572
:1003C00001970895FC01918D828D981761F0828DBF
:1003D000DF01A80FB11D5D968C91928D9F5F9F7379
:1003E000928F90E008958FEF9FEF0895FC01918D1B
:1003F000828D981731F0828DE80FF11D858D90E088
:1004000008958FEF9FEF0895FC01918D228D892F24
:1004100090E0805C9F4F821B91098F73992708950C
:1004200080E090E0892B21F00E947D09811121C09C
:1004300080E090E0892B21F00E94730981111CC09B
:1004400080E090E0892B41F080E090E0892B21F062
:100450000E940000811113C080E090E0892BA1F080
:1004600080E090E0892B81F00E94000081110AC099
:1004700008950E940000DCCF0E940000E1CF0E949E
:100480000000EACF0C94000008952FB7F8948091F3
:10049000850290918602A0918702B09188022FBFB9
:1004A00080937E0290937F02A0938002B09381029A
:1004B00081E0809382020895AF92BF92CF92DF9243
:1004C000EF92FF920F931F93CF93DF93CDB7DEB7D9
:1004D0007C01CDB6DEB680919202909193022DB749
:1004E0003EB7281B390B0FB6F8943EBF0FBE2DBF89
:1004F0000DB71EB70F5F1F4F5801F8019F01201B5A
:10050000310B2817390714F41192F8CFD70116963A
:10051000ED91FC911797E00FF11F608360E08C91E3
:100520000E94640C8CE58CBD1DBC80919202909160
:1005300093020097E1F0F80120812EBD9C0121502B
:10054000310961F0D50111965C910DB407FEFDCF24
:100550004EB55EBDF50141935F01F1CF0197F80102
:10056000E80FF91F0DB407FEFDCF8EB5808361E063
:10057000D7018C910E94640CF70186819781F80164
:10058000E80FF91F80810FB6F894DEBE0FBECDBE16
:10059000DF91CF911F910F91FF90EF90DF90CF905F
:1005A000BF90AF9008952F923F924F925F926F92BB
:1005B0007F928F929F92AF92BF92CF92DF92EF92F3
:1005C000FF920F931F93CF93DF9300D0CDB7DEB789
:1005D0005C012A013B012983822E869486948694AD
:1005E000822F877009F08394912C140193E0220CE0
:1005F000331C9A95E1F700E010E01B821A82C12CAF
:10060000D12C7601085011092A813B812815390522
:10061000ECF4FE2CED2CDC2CCC24C801820D931DB7
:10062000A301920104C056954795379527958A9561
:10063000D2F7CA01B901C5010E945C02C82A4A81E9
:100640005B814F5F5F4F5B834A83DCCF20E230E00A
:100650005981251B31098FEF9FEFDC0104C0B6954E
:10066000A795979587952A95D2F7BC01CD016C2166
:100670007D218E219F210F900F900F90DF91CF91C0
:100680001F910F91FF90EF90DF90CF90BF90AF90B0
:100690009F908F907F906F905F904F903F902F90A2
:1006A00008950F931F93DC01E62FBA01A9010E2FC5
:1006B00010E0F8013197EB31F10550F58827EE583D
:1006C000FF4F8F4F0C94AB1229E01DC026E11BC0D9
:1006D00024E116C02CE017C02DE015C02AE013C09D
:1006E0002EE011C04F7055276627772704C04F7141
:1006F00055276627772728E006C020E104C020E1BF
:1007000040E050E0BA01CD011F910F910C94D3024B
:10071000CB01BA01CD010E945C0260E070E0CB0128
:100720001F910F910895CF92DF92EF92FF920F9356
:100730001F93CF93DF9300D01F92CDB7DEB78C010C
:1007400069017A0160650E945C022DEB37E346E89F
:1007500052E4C701B6010E94ED110E943E13462FDC
:10076000572FBC014115510580E16807710520F044
:100770004FEF5FEF6FE070E049835A836B837C83B8
:100780006B81C8010E945C026A81C8010E945C0200
:100790006981C8010F900F900F900F90DF91CF915A
:1007A0001F910F91FF90EF90DF90CF900C945C021F
:1007B0001F93CF93DF93CAE6D2E01AE080917C02C8
:1007C00090E09E012A5632402817390754F4899147
:1007D000189FC001112460EB88509C4F0E945C025E
:1007E000EDCF10927C02DF91CF911F9108958F92EF
:1007F0009F92AF92BF920F931F93CF93DF9300D03E
:100800001F92CDB7DEB7909183029F5F90938302D2
:100810004A015B0177FF07C0882499245401841A98
:10082000950AA60AB70A9AE0899F80011124085008
:100830001C4F89829A82AB82BC8281E01416150615
:10084000160617060CF080E0682F6064C8010E944D
:100850005C028114910480E4A806B10444F08FEF97
:100860009FEFAFE3B0E089839A83AB83BC836B8156
:10087000C8010E945C026A81C8010E945C02698111
:10088000C8010F900F900F900F90DF91CF911F91A3
:100890000F91BF90AF909F908F900C945C02FC01E1
:1008A000848DDF01A80FB11DA35ABF4F2C91848DF9
:1008B00090E001968F739927848FA689B7892C932E
:1008C000A089B1898C91837080648C93938D848D81
:1008D000981306C00288F389E02D80818F7D808384
:1008E0000895EF92FF920F931F93CF93DF93EC0144
:1008F00081E0888F9B8D8C8D981305C0E889F989DC
:10090000808185FD26C0F62E0B8D10E00F5F1F4FF6
:100910000F731127E02E8C8DE8120CC00FB607FC68
:10092000FACFE889F989808185FFF5CFCE010E9451
:100930004F04F1CF8B8DFE01E80FF11DE35AFF4FFD
:10094000F0829FB7F8940B8FEA89FB8980818062DF
:100950000AC09FB7F894EE89FF896083E889F98916
:1009600080818370806480839FBF81E090E0DF910D
:10097000CF911F910F91FF90EF900895CF93DF9348
:10098000EC01888D8823C9F0EA89FB89808185FD87
:1009900005C0A889B9898C9186FD0FC00FB607FCE8
:1009A000F5CF808185FFF2CFA889B9898C9185FF29
:1009B000EDCFCE010E944F04E7CFDF91CF91089594
:1009C0000F931F93CF93DF931F921F92CDB7DEB784
:1009D0008C011A82198260ED0E945C0260E0C801FD
:1009E0000E945C028A8360E0C8010E945C028983E5
:1009F00089819A810F900F90DF91CF911F910F9174
:100A00000895BF92CF92DF92EF92FF920F931F93C0
:100A1000CF93DF9300D01F92CDB7DEB76A017B0181
:100A2000BB24B39414161506160617060CF0B12C49
:100A30009AE0899F8001112408501C4FC8010E9430
:100A4000E00482FD3CC06B2D6268C8010E945C021C
:100A5000C701B601F7FE07C0909580957095619526
:100A60007F4F8F4F9F4F0E94B2112DEB37E346E827
:100A700052E40E94ED110E943E13462F572FBC01F5
:100A80004115510580E16807710520F04FEF5FEFD8
:100A90006FE070E049835A836B837C836B81C8016C
:100AA0000E945C026A81C8010E945C026981C801DF
:100AB0000E945C0280917D028F5F80937D020F9087
:100AC0000F900F900F90DF91CF911F910F91FF909A
:100AD000EF90DF90CF90BF9008951F93CF93DF9357
:100AE000EC01162F60620E945C0220E030E0A90158
:100AF000612FCE01DF91CF911F910C945103CF92C2
:100B0000DF92EF92FF921F93CF93DF93EC01162FAA
:100B100069017A010E945C02A7019601612FCE0152
:100B2000DF91CF911F91FF90EF90DF90CF900C94C9
:100B30005103CF93DF93EC01CB01BA012DEB37E3E7
:100B400046E85DE30E94ED110E9420130E943E13CF
:100B50009B01AC01211584E038074105510520F0C7
:100B60002FEF33E040E050E067E0CE01DF91CF911E
:100B70000C947F050F931F93CF938C01C62F66E1D2
:100B80000E946D052C2F2770687F262B30E040E0F7
:100B900050E066E1C801CF911F910F910C947F0541
:100BA0006DED8BE593E00C947104CF93C82F8D3DD0
:100BB00011F08D3729F46DE78BE593E00E94710405
:100BC0006C2F8BE593E0CF910C9471040F931F93DE
:100BD000CF93DF93EC018C01060F111DC017D107D5
:100BE00021F089910E94D505F9CFDF91CF911F9116
:100BF0000F9108958230A0F491E0981B892F909175
:100C0000050121E030E0082E01C0220F0A94EAF726
:100C1000662311F0292B02C020952923209305017A
:100C20009EEF980F923088F427E0281B35B181E0C1
:100C300090E001C0880F2A95EAF7662311F0832B14
:100C400002C08095832385B908959CEF980F943056
:100C500098F42AE0281B3091020181E090E001C065
:100C6000880F2A95EAF7662311F0832B02C080953E
:100C70008323809302010895883031F4662311F0B4
:100C8000739A089573980895893031F4662311F0AA
:100C9000A59A0895A598089596EF980F923080F43C
:100CA0002FE0281B3EB181E090E001C0880F2A951B
:100CB000EAF7662311F0832B02C0809583238EB957
:100CC00008953F924F925F926F927F928F929F9280
:100CD000AF92BF92CF92DF92EF92FF920F931F934A
:100CE000CF93DF93EB01C880D980EA80FB80EC8151
:100CF0004E2F50E0FA013F97E131F10508F0B3C201
:100D0000DC018827E357FF4F8F4F0C94AB1241E073
:100D1000C701B6010E94CE0B8111A5C20E944502F7
:100D20001D81CE80DF80E884F984812F0E940A0B28
:100D3000882309F498C210927D02B701A601812F81
:100D4000DF91CF911F910F91FF90EF90DF90CF90A7
:100D5000BF90AF909F908F907F906F905F904F90DB
:100D60003F900C94010541E0C701B6010E94CE0BF3
:100D7000811179C20E9445021D81CE80DF80E88406
:100D8000F984812F0E940A0B882309F46CC2C701E1
:100D9000B6010E94B2119B01AC0161E01C141D045C
:100DA0001E041F040CF060E07AE0179FC0011124BC
:100DB00088509C4FDF91CF911F910F91FF90EF9042
:100DC000DF90CF90BF90AF909F908F907F906F906B
:100DD0005F904F903F900C94930341E0C701B601A0
:100DE0000E94CE0B81113FC20E9445021D81CE8020
:100DF000DF80E884F984812F0E940A0B882309F49C
:100E000032C2B701A601812FDF91CF911F910F91BF
:100E1000FF90EF90DF90CF90BF90AF909F908F901A
:100E20007F906F905F904F903F900C94F70340E05D
:100E3000C701B6010E94CE0B811115C21D81CE8162
:100E4000812F0E940A0B882309F40DC2C11106C02C
:100E50002AE0129FC001112460EB07C0C130D1F419
:100E60007AE0179FC001112468EB88509C4FDF91F6
:100E7000CF911F910F91FF90EF90DF90CF90BF9097
:100E8000AF909F908F907F906F905F904F903F902A
:100E90000C945C02C23031F42AE0129FC00111248C
:100EA00060EAE3CFC33009F0DEC17AE0179FC001EA
:100EB000112468EADACF40E0C701B6010E94CE0BE8
:100EC0008111D1C11D81CE80DF80E884F984812F1A
:100ED0000E940A0B882309F4C6C18AE0189FE0012A
:100EE0001124C850DC4FC701B60142E0660F771FDE
:100EF000881F991F4A95D1F70E94B011AB01BC0120
:100F0000CE010E949905C701B6010E94B0112DEBD8
:100F100037E346E85DE30E94ED1120E030E040E079
:100F20005FE30E94B3120E9437139B01AC012115AD
:100F300074E037074105510520F02FEF33E040E022
:100F400050E065E1CE01DF91CF911F910F91FF90AD
:100F5000EF90DF90CF90BF90AF909F908F907F9059
:100F60006F905F904F903F900C947F0540E0C701D9
:100F7000B6010E94CE0B811176C16E818D81DF9109
:100F8000CF911F910F91FF90EF90DF90CF90BF9086
:100F9000AF909F908F907F906F905F904F903F9019
:100FA0000C94FA0541E0C701B6010E94CE0B8111F5
:100FB0005AC10E944502ED801092830200E010E0C9
:100FC0000E2C000CFF080E151F050CF04CC1DE8026
:100FD0008F809884A984BA848D2D0E940A0B88235F
:100FE00029F0B501A4018D2D0E94F7030F5F1F4F5B
:100FF0002596E9CF40E0C701B6010E94CE0B8111D2
:1010000032C1CD80E12CF12CD12C3AE0732EEC14BE
:10101000FD040CF028C10E818F809884A984BA84C5
:10102000802F0E940A0B8823B9F1709E8001112441
:1010300008501C4FC501B40122E0660F771F881FBE
:10104000991F2A95D1F70E94B011AB01BC01C801CC
:101050000E949905C501B4010E94B0112DEB37E340
:1010600046E85DE30E94ED1120E030E040E05FE300
:101070000E94B3120E9437139B01AC01211584E03A
:1010800038074105510520F02FEF33E040E050E0F4
:1010900065E1C8010E947F052FEFE21AF20A25964A
:1010A000B6CF41E0C701B6010E94CE0B8111DBC073
:1010B0000E944502ED8010927D0200E010E0F12CCC
:1010C0000E151F050CF0CFC0DE808F809884A98498
:1010D000BA848D2D0E940A0B882329F0B501A40142
:1010E0008D2D0E9401050F5F1F4F2596E9CF6B5F85
:1010F0007F4F01E003C06B5F7F4F00E0A7019601C7
:10110000CD010E94080CAFC041E0C701B6010E94AA
:10111000CE0B8111A8C00E9445028D800E94D80389
:10112000A12CB12C912C8AE0382EA814B9040CF013
:101130009AC00E81CF80D884E984FA84802F0E94DF
:101140000A0B882379F1E0917C0281E08E0F809375
:101150007C02F0E0E659FD4F0083C701B601F7FEBF
:1011600007C066277727CB016C197D098E099F0977
:101170000E94B2112B013C01309E800111240850C5
:101180001C4FAB01BC01C8010E94990561E01C1411
:101190001D041E041F040CF060E0A3019201C801AD
:1011A0000E9493037FEFA71AB70A2596BECF10922D
:1011B000560310927D02109283020E94D803C8EF5A
:1011C000D3E060EACE010E945C022A9684E0CC3A29
:1011D000D807B9F7C0E060E08C2F0E94FA05CF5F16
:1011E000CC30C9F740C040E0C701B6010E94CE0B29
:1011F000811139C081E08093840249E050E067E0CA
:1012000072E08CEA94E0DF91CF911F910F91FF90F3
:10121000EF90DF90CF90BF90AF909F908F907F9096
:101220006F905F904F903F900C9445090E94D005BD
:101230008FE00E94D5056AE08EE492E00E94E60508
:10124000DF91CF911F910F91FF90EF90DF90CF90A2
:10125000BF90AF909F908F907F906F905F904F90D6
:101260003F900C94D005DF91CF911F910F91FF908B
:10127000EF90DF90CF90BF90AF909F908F907F9036
:101280006F905F904F903F900895CF92DF92EF92D2
:10129000FF920F931F93CF93DF936C017A018B0121
:1012A000C0E0D0E0CE15DF0581F0D8016D918D0151
:1012B000D601ED91FC910190F081E02DC6011995C8
:1012C000892B11F02196EECF7E01C701DF91CF91DE
:1012D0001F910F91FF90EF90DF90CF9008950895A8
:1012E00080E090E008958CEA94E00E94040221E0FE
:1012F000892B09F420E0822F08958BE593E00E946A
:10130000040221E0892B09F420E0822F08950E9435
:10131000B4151F920F920FB60F9211242F933F9383
:101320008F939F93AF93BF93809185029091860294
:10133000A0918702B091880230918C0223E0230FA4
:101340002D3720F40196A11DB11D05C026E8230FFD
:101350000296A11DB11D20938C028093850290936B
:101360008602A0938702B093880280918D029091AB
:101370008E02A0918F02B09190020196A11DB11D25
:1013800080938D0290938E02A0938F02B09390026F
:10139000BF91AF919F918F913F912F910F900FBE71
:1013A0000F901F9018950F931F93CF93DF93EC012D
:1013B00088819981009729F02A813B812617370778
:1013C00088F48B016F5F7F4F0E94CF14009761F00C
:1013D000998388831B830A832C813D81232B11F4FD
:1013E000FC01108281E001C080E0DF91CF911F916C
:1013F0000F910895CF93DF93EC0188819981009735
:1014000011F00E944614198218821D821C821B82D0
:101410001A82DF91CF910895EF92FF920F931F935D
:10142000CF93DF93EC017B018A01BA010E94D309BB
:10143000811104C0CE010E94FA0907C01D830C83EC
:10144000B701888199810E94C215CE01DF91CF91A9
:101450001F910F91FF90EF9008951F920F920FB67A
:101460000F9211240BB60F922F933F934F935F93DC
:101470006F937F938F939F93AF93BF93EF93FF935C
:101480008CEA94E00E944F04FF91EF91BF91AF91DD
:101490009F918F917F916F915F914F913F912F918C
:1014A0000F900BBE0F900FBE0F901F9018951F92BC
:1014B0000F920FB60F9211240BB60F922F938F93AA
:1014C0009F93EF93FF93E091BC04F091BD04808162
:1014D000E091C204F091C30482FD12C0908180911A
:1014E000C5048F5F8F732091C604821751F0E0917D
:1014F000C504F0E0E455FB4F958F8093C50401C00F
:101500008081FF91EF919F918F912F910F900BBE52
:101510000F900FBE0F901F9018951F920F920FB64D
:101520000F9211240BB60F922F933F934F935F931B
:101530006F937F938F939F93AF93BF93EF93FF939B
:101540008BE593E00E944F04FF91EF91BF91AF9123
:101550009F918F917F916F915F914F913F912F91CB
:101560000F900BBE0F900FBE0F901F9018951F92FB
:101570000F920FB60F9211240BB60F922F938F93E9
:101580009F93EF93FF93E0916B03F0916C03808145
:10159000E0917103F091720382FD12C090818091FD
:1015A00074038F5F8F7320917503821751F0E09160
:1015B0007403F0E0E55AFC4F958F8093740301C0EB
:1015C0008081FF91EF919F918F912F910F900BBE92
:1015D0000F900FBE0F901F901895FC0185E390E0CF
:1015E000918380837783668380E390E09383828313
:1015F0008FEF9FEF95838483809192029091930265
:101600000196909393028093920281E992E09187F0
:1016100080870895AF92BF92CF92DF92FF920F938F
:101620001F93CF93DF93CDB7DEB765970FB6F894CE
:10163000DEBF0FBECDBFFF24F394823108F0F12C42
:10164000282F30E0823108F47AC01B861A861D8666
:101650001C861F861E864AE08E010F5F1F4FB80151
:10166000C9010E948611F80101900020E9F7319725
:10167000AF01401B510BB801CE010A960E940C0A23
:101680001A8219821C821B821E821D8240E150E058
:1016900069E572E0C8010E940C0A8E859F85AA84C4
:1016A000BB84A114B10409F464C00097B1F0CD80EB
:1016B000DE80C80ED91EB601C8010E94D309882356
:1016C00009F457C029813A818D819E81B501820F2D
:1016D000931F0E94C215DE82CD82198A188A1B8A46
:1016E0001A8A1D8A1C8A69817A816115710531F017
:1016F0004D815E81CE0140960E940C0A89819A81BB
:101700000E9446148A859B850E944614088919897F
:101710000E94D00583E10E94D505F80101900020C8
:10172000E9F73197BF01601B710BC8010E94E60504
:101730000E94D005888999890E9446141EC08AE0BB
:10174000829F8001839F100D112408501C4F68E078
:10175000C8010E946D05DC01CB0188279071AA2782
:10176000BB279C01AD01216068E0C8010E947F0594
:1017700004C0C8010E94FA09B0CF8F2D65960FB63C
:10178000F894DEBF0FBECDBFDF91CF911F910F91B7
:10179000FF90DF90CF90BF90AF9008950F931F936D
:1017A000CF93DF9300915703109158032091590371
:1017B00030915A03061717072807390779F0609305
:1017C0005703709358038093590390935A031092D0
:1017D0000002413029F44093560302C0C1E001C029
:1017E000C0E0D09100020E94D00582E10E94D505A0
:1017F0008D2F0E94D50564E087E593E00E94E60501
:101800000E94D0058C2FDF91CF911F910F910895E9
:10181000CF92DF92EF92FF920F93CF93DF937B01F2
:10182000CA01B90140E00E94CE0B811110C0E7014E
:10183000C990E12CF12CD12CEC14FD0444F4602F60
:1018400089910E94FA058FEFE81AF80AF5CFDF9127
:10185000CF910F91FF90EF90DF90CF90089590E09F
:10186000FC01E850FD4F2491FC01EE54FD4F8491A2
:10187000882399F090E0880F991FFC01E856FD4FEE
:10188000A591B491FC01E258FD4F859194918FB7D9
:10189000F894EC91E22BEC938FBF0895E0915503FF
:1018A00091E09E0F90935503F0E0EB56FD4FA82F6B
:1018B000B0E0AB52BD4F8C918083903411F4109204
:1018C0005503109294020895362F90E0FC01E85CD5
:1018D000FD4F4491FC01E850FD4F2491FC01EE5472
:1018E000FD4F9491992309F46CC0442309F455C029
:1018F00050E0FA013197E231F10508F04EC0882737
:10190000E256FF4F8F4F0C94AB12809180008F777F
:1019100007C0809180008F7D03C080918000877F09
:10192000809380003AC084B58F7702C084B58F7DE4
:1019300084BD33C08091B0008F7703C08091B00028
:101940008F7D8093B00029C0809190008F7707C071
:10195000809190008F7D03C080919000877F80935D
:1019600090001BC08091A0008F7707C08091A000DD
:101970008F7D03C08091A000877F8093A0000DC061
:10198000809120018F7707C0809120018F7D03C057
:1019900080912001877F80932001E92FF0E0EE0FF6
:1019A000FF1FE258FD4FA591B4919FB7F8943111F4
:1019B00004C08C912095282302C0EC912E2B2C93EF
:1019C0009FBF08953FB7F89480918D0290918E0249
:1019D000A0918F02B091900226B5A89B05C02F3F21
:1019E00019F00196A11DB11D3FBFBA2FA92F982F45
:1019F0008827820F911DA11DB11DBC01CD0142E0C0
:101A0000660F771F881F991F4A95D1F70895CF93C6
:101A1000DF93CDB7DEB7A4970FB6F894DEBF0FBE45
:101A2000CDBF789484B5826084BD84B5816084BD67
:101A300085B5826085BD85B5816085BD80916E006C
:101A4000816080936E00109281008091810082609D
:101A500080938100809181008160809381008091DA
:101A600080008160809380008091B10084608093C9
:101A7000B1008091B00081608093B00080919100AE
:101A800082608093910080919100816080939100A9
:101A9000809190008160809390008091A10082608D
:101AA0008093A1008091A10081608093A10080912A
:101AB000A00081608093A0008091210182608093CA
:101AC0002101809121018160809321018091200179
:101AD00081608093200180917A00846080937A00F5
:101AE00080917A00826080937A0080917A00816090
:101AF00080937A0080917A00806880937A001092B7
:101B0000C1000D9A0E9A0F9A159A169A179AE0919B
:101B10006B03F0916C0382E08083E0916703F091A6
:101B200068031082E0916903F0916A0380E1808389
:101B300010927303E0916F03F091700386E080834D
:101B4000E0916D03F0916E03808180618083E0916C
:101B50006D03F0916E03808188608083E0916D0356
:101B6000F0916E03808180688083E0916D03F09135
:101B70006E0380818F7D808310927E0210927F029F
:101B8000109280021092810210928B0280910401C7
:101B900083608093040184B1806384B980910101E2
:101BA0008867809301018DB188638DB99D9A80E328
:101BB0000E942F0C85E30E942F0C83E30E942F0CC0
:101BC00082E30E942F0C84E30E942F0C61E080E3EB
:101BD0000E94640C60E080E30E94640C61E080E39A
:101BE0000E94640C61E085E30E94640C1FB7F894C6
:101BF00080918902811124C0E7EEF2E08491EDE248
:101C0000F3E09491E82FF0E0EE0FFF1FE856FD4F50
:101C1000A591B491EC91E92321F461E085E30E9460
:101C2000640C85E30E942F0C8CB580618CBD8CB553
:101C300080648CBD84E30E942F0C83E30E942F0CF0
:101C4000809189028F5F809389021FBF8CB58C6061
:101C50008CBD4CEAE42E44E0F42E08EF13E051E989
:101C6000C52E52E0D52ED8011996DC92CE92189747
:101C700066E1C8010E946D05262F2F7030E040E01C
:101C800050E066E1C8010E947F0567E0C8010E943C
:101C9000BA0540E050E06AE774E4C8010E94990583
:101CA00022E830E040E050E065E1C8010E947F0595
:101CB00029E830E040E050E065E0C8010E947F057F
:101CC00029E830E040E050E066E0C8010E947F056E
:101CD00068E1C8010E946D05DC01CB0188279C01E9
:101CE000AD01266A68E1C8010E947F0528E030E066
:101CF00040E050E063E1C8010E947F056AE1C8014D
:101D00000E946D059B01AC0120686AE1C8010E9438
:101D10007F056AE1C8010E946D05DC01CB0193706B
:101D2000AA27BB279C01AD0134606AE1C8010E946B
:101D30007F056AE1C8010E946D059B01AC012F7D02
:101D40006AE1C8010E947F056AE1C8010E946D0531
:101D50009B01AC0120616AE1C8010E947F056AE134
:101D6000C8010E946D059B01AC01207F6AE1C8019A
:101D70000E947F0520E430E040E050E06AE0C801C6
:101D80000E947F0520E430E040E050E06BE0C801B5
:101D90000E947F0520E430E040E050E06CE0C801A4
:101DA0000E947F0520E230E040E050E069E0C80199
:101DB0000E947F052FE830E040E050E067E1C80175
:101DC0000E947F05C8010E94E004065F1F4FE016D5
:101DD000F10609F048CF65E08EE894E00E94BA056C
:101DE000DD24D3947E01B5E2EB0EF11C02E01092EB
:101DF0008A028BE593E00E940402C82E882309F42E
:101E000043C010918A0281E0810F80938A028BE5A2
:101E100093E00E94E201E12FF0E0EB52FD4F80835E
:101E2000CA94C110EECF10E080918A02181760F5B5
:101E3000E12FF0E0EB52FD4F80818D3DB9F48091B0
:101E4000940281111CC08091490590914A054091EE
:101E500055034150DC01ED91FC910190F081E02DA2
:101E600065E972E01995109255030CC08D3739F46D
:101E700080919402811103C0D092940203C0812FFB
:101E80000E944E0C1F5FD0CFFE0131965F0138EFEC
:101E9000832E33E0932ECE2E1B2DC4010E94E0042E
:101EA000D5018D939D935D01BAE08B0E911CAE140C
:101EB000BF0499F70E94D00580E10E94D50564E235
:101EC0008C2D912F0E94E6050E94D005EC2DF12F5C
:101ED00080E090917B00977F282F287F922B909312
:101EE0007B00982F9770906490937C0090917A007B
:101EF000906490937A0090917A0096FDFCCF2091A7
:101F000078009091790030E0392B219331938F5FE5
:101F10008031F9F60E94D00581E10E94D50560E28A
:101F20008C2D912F0E94E6050E94D005809184029D
:101F3000882341F110928402E0918B02E33060F437
:101F400081E08E0F80938B02F0E0EE0FFF1FE05DCB
:101F5000FD4FA080B18004C090E1A92E92E0B92E7F
:101F60000E94D00584E10E94D505F5010190002072
:101F7000E9F73197BF016A197B09C5010E94E6059F
:101F80000E94D00580915603882309F485C0809172
:101F90008202882321F180918302882321F12FB7C7
:101FA000F8948091850290918602A0918702B09169
:101FB00088022FBF40917E0250917F026091800283
:101FC00070918102841B950BA60BB70B803D974047
:101FD000A105B10520F01092820210928302809137
:101FE0008302811159C080918202882321F180915E
:101FF0007D02882321F12FB7F8948091850290917A
:102000008602A0918702B09188022FBF40917E0284
:1020100050917F026091800270918102841B950B28
:10202000A60BB70B803D9740A105B10520F010929B
:10203000820210927D0280917D0281112DC08091DB
:102040008202882329F180917C02882309F44DC003
:102050002FB7F8948091850290918602A091870213
:10206000B09188022FBF40917E0250917F02609113
:10207000800270918102841B950BA60BB70B803DEB
:102080009740A105B10520F01092820210927C02C7
:1020900080917C02882349F10E94E20C2B013C01D3
:1020A00082E3882E912CA12CB12C0E94E20CDC0141
:1020B000CB0184199509A609B709883E9340A1056B
:1020C000B10598F3E1E08E1A9108A108B108F8EE85
:1020D0004F0EF3E05F1E611C711C81149104A1047A
:1020E000B10419F70E94100282CE009300021092F0
:1020F00056030E94D00582E10E94D50582E00E942D
:10210000D50564E087E593E00E94E6050E94D005CE
:10211000C3CFCF93DF93CCEAD4E01B821A8248EE80
:1021200053E060E070E04C835D836E837F838AE3DD
:1021300092E0998388832DEC30E03D872C872CEC4E
:1021400030E03F872E8728EC30E0398B288B29EC54
:1021500030E03B8B2A8B2AEC30E03D8B2C8B2EEC35
:1021600030E03F8B2E8B198E1A8E1B8E1C8EEBE56A
:10217000F3E01382128244835583668377839183CD
:10218000808385EC90E09587848784EC90E0978746
:10219000868780EC90E0918B808B81EC90E0938B34
:1021A000828B82EC90E0958B848B86EC90E0978B11
:1021B000868B118E128E138E148E60E070E088EF85
:1021C00093E00E94ED0A61E070E082E094E00E94FA
:1021D000ED0A62E070E08CE094E00E94ED0A63E0BA
:1021E00070E086E194E00E94ED0A64E070E080E235
:1021F00094E00E94ED0A65E070E08AE294E00E94BB
:10220000ED0A66E070E084E394E00E94ED0A67E086
:1022100070E08EE394E00E94ED0A68E070E088E4EC
:1022200094E00E94ED0A69E070E082E594E00E948B
:10223000ED0A6AE070E08CE594E00E94ED0A6BE044
:1022400070E086E694E00E94ED0A6CE070E080E7C2
:1022500094E00E94ED0A6DE070E08AE794E00E944D
:10226000ED0A6EE070E084E894E00E94ED0A6FE011
:1022700070E08EE894E00E94ED0A60E170E088E989
:1022800094E00E94ED0A61E170E082EA94E00E942D
:10229000ED0AE889F98982E08083EC85FD8510826A
:1022A000EE85FF858FEC8083188EEC89FD8986E0B2
:1022B0008083EA89FB89808180618083EA89FB8948
:1022C000808188608083EA89FB898081806880833F
:1022D000EA89FB8980818F7D8083EBE4F5E08CE4E3
:1022E00092E09183808386E595E09383828385E500
:1022F00095E09583848387E595E091878087F093C7
:102300004A05E0934905DF91CF910895BB27FB0172
:102310005527AA27880F991FAA1FA41710F0A41BDE
:1023200083955051B9F7A05DAA3308F0A95DA19338
:10233000009779F7B111B1931192CB010C94A011D0
:10234000DC01FC01672F71917723E1F7329704C01C
:102350007C916D9370836291AE17BF07C8F30895A7
:10236000E89409C097FB3EF490958095709561952F
:102370007F4F8F4F9F4F9923A9F0F92F96E9BB27E5
:102380009395F695879577956795B795F111F8CF61
:10239000FAF4BB0F11F460FF1BC06F5F7F4F8F4FCC
:1023A0009F4F16C0882311F096E911C0772321F0C2
:1023B0009EE8872F762F05C0662371F096E8862F5A
:1023C00070E060E02AF09A95660F771F881FDAF7B1
:1023D000880F9695879597F908950E9400120C949E
:1023E00071120E94631238F00E946A1220F0952345
:1023F00011F00C945A120C94601211240C94A51232
:102400000E94821270F3959FC1F3950F50E0551F03
:10241000629FF001729FBB27F00DB11D639FAA2739
:10242000F00DB11DAA1F649F6627B00DA11D661F88
:10243000829F2227B00DA11D621F739FB00DA11DA9
:10244000621F839FA00D611D221F749F3327A00D63
:10245000611D231F849F600D211D822F762F6A2FFF
:1024600011249F5750409AF0F1F088234AF0EE0F64
:10247000FF1FBB1F661F771F881F91505040A9F791
:102480009E3F510580F00C945A120C94A5125F3FA8
:10249000E4F3983ED4F3869577956795B795F795CD
:1024A000E7959F5FC1F7FE2B880F911D9695879545
:1024B00097F9089597F99F6780E870E060E00895C4
:1024C0009FEF80EC089500240A941616170618064C
:1024D0000906089500240A94121613061406050628
:1024E0000895092E0394000C11F4882352F0BB0FB9
:1024F00040F4BF2B11F460FF04C06F5F7F4F8F4F1C
:102500009F4F089557FD9058440F551F59F05F3F56
:1025100071F04795880F97FB991F61F09F3F79F005
:1025200087950895121613061406551FF2CF469587
:10253000F1DF08C0161617061806991FF1CF869509
:102540007105610508940895E894BB2766277727ED
:10255000CB0197F90895EE0FFF1F881F8BBF0790DF
:10256000F691E02D19945058BB27AA270E94CB1250
:102570000C9471120E94631238F00E946A1220F0CB
:1025800039F49F3F19F426F40C9460120EF4E09590
:10259000E7FB0C945A12E92F0E94821258F3BA17E3
:1025A000620773078407950720F079F4A6F50C9469
:1025B000A4120EF4E0950B2EBA2FA02D0B01B90139
:1025C00090010C01CA01A0011124FF27591B99F0A9
:1025D000593F50F4503E68F11A16F040A22F232FB5
:1025E000342F4427585FF3CF469537952795A79505
:1025F000F0405395C9F77EF41F16BA0B620B730BAC
:10260000840BBAF09150A1F0FF0FBB1F661F771F1C
:10261000881FC2F70EC0BA0F621F731F841F48F4D1
:10262000879577956795B795F7959E3F08F0B0CF5A
:102630009395880F08F09927EE0F97958795089541
:102640000E94961390F09F3748F4911116F40C9461
:10265000A51260E070E080E89FE3089526F01B1665
:10266000611D711D811D0C946D130C9488130E94C3
:102670003E136894B1110C94A51208950E948A1219
:1026800088F09F5798F0B92F9927B751B0F0E1F033
:10269000660F771F881F991F1AF0BA95C9F714C0E3
:1026A000B13091F00E94A412B1E008950C94A412EC
:1026B000672F782F8827B85F39F0B93FCCF386951C
:1026C00077956795B395D9F73EF490958095709579
:1026D00061957F4F8F4F9F4F0895882371F4772323
:1026E00021F09850872B762F07C0662311F4992785
:1026F0000DC09051862B70E060E02AF09A95660F2D
:10270000771F881FDAF7880F9695879597F90895B0
:102710009F3F31F0915020F4879577956795B79555
:10272000880F911D9695879597F908950E948A12B2
:10273000A0F0BEE7B91788F4BB279F3860F41616DF
:10274000B11D672F782F8827985FF7CF86957795EB
:102750006795B11D93959639C8F308950F931F930C
:10276000CF93DF938230910510F482E090E0E09106
:102770005A05F0915B0520E030E0A0E0B0E0309732
:1027800019F1408151810281138148175907C8F01E
:102790008417950769F4109731F012960C931297ED
:1027A00013961C9327C000935A0510935B0522C013
:1027B0002115310519F04217530718F49A01BD018C
:1027C000EF01DF01F801DBCF21153105F9F0281BFE
:1027D000390B2430310580F48A819B8161157105A4
:1027E00021F0FB019383828304C090935B05809367
:1027F0005A05FE01329644C0FE01E20FF31F819399
:10280000919322503109398328833AC02091580589
:1028100030915905232B41F4209103023091040299
:1028200030935905209358052091010230910202FE
:102830002115310541F42DB73EB740910502509165
:102840000602241B350BE0915805F0915905E2175B
:10285000F307A0F42E1B3F0B2817390778F0AC01C3
:102860004E5F5F4F2417350748F04E0F5F1F5093A0
:102870005905409358058193919302C0E0E0F0E040
:10288000CF01DF91CF911F910F910895CF93DF93E7
:10289000009709F481C0FC01329713821282A09143
:1028A0005A05B0915B05109781F420813181820F28
:1028B000931F20915805309159052817390751F574
:1028C000F0935905E093580567C0ED0120E030E032
:1028D000CE17DF0740F44A815B819E014115510507
:1028E000F1F0EA01F5CFD383C28340815181840F97
:1028F000951FC817D90759F488819981840F951FAE
:102900000296918380838A819B81938382832115A0
:10291000310529F4F0935B05E0935A053DC0E901C8
:10292000FB83EA8349915991C40FD51FEC17FD072A
:1029300061F480819181840F951F0296E90199834A
:102940008883828193819B838A83E0E0F0E0129602
:102950008D919C911397009719F0FD01DC01F7CF41
:102960008D919C9111979D012E5F3F4F820F931F78
:1029700020915805309159052817390769F4309787
:1029800029F410925B0510925A0502C0138212823C
:10299000B0935905A0935805DF91CF9108956F9298
:1029A0007F928F929F92AF92BF92CF92DF92EF92DF
:1029B000FF920F931F93CF93DF93009789F4CB017E
:1029C000DF91CF911F910F91FF90EF90DF90CF900B
:1029D000BF90AF909F908F907F906F900C94AE13AC
:1029E000FC01E60FF71F9C0122503109E217F307A3
:1029F00008F4A9C0EC01D9010D911C91119706179B
:102A00001707B0F00530110508F49BC0C801049702
:102A10008617970708F495C002501109061B170B7B
:102A2000019311936D937C93CF010E94461489C04A
:102A30005B01A01AB10A4C01800E911EA0915A05AB
:102A4000B0915B05612C712CE12CF12C109709F4ED
:102A500046C08D919C911197A815B905B1F56C01EF
:102A600042E0C40ED11CCA14DB0478F14C018A1870
:102A70009B08640142E0C40ED11C1296BC901297D0
:102A80001396AC91B5E0CB16D10440F0B282A3838B
:102A900091828082D9016D937C9309C00E5F1F4F94
:102AA000800F911FF90191838083EB2DFA2FE114A0
:102AB000F10431F0D7011396FC93EE93129741C0C5
:102AC000F0935B05E0935A053CC06816790608F45C
:102AD0003C017D0112960D90BC91A02DB7CF809145
:102AE00058059091590588169906E1F466167706FF
:102AF000C8F48091010290910202009741F48DB7D1
:102B00009EB74091050250910602841B950BE81771
:102B1000F907C8F4F0935905E0935805F90171835A
:102B200060830FC0CB010E94AE137C01009759F067
:102B3000A801BE010E94B915CE010E944614C7012A
:102B400004C0CE0102C080E090E0DF91CF911F91E0
:102B50000F91FF90EF90DF90CF90BF90AF909F903C
:102B60008F907F906F90089581E090E0F8940C949E
:102B7000C915FB01DC0102C001900D92415050408B
:102B8000D8F70895FB01DC0101900D920020E1F7D8
:062B90000895F894FFCF48
:102B96000200005C0520007E000801000201ABCDAA
:102BA60000003737464738395254000033345157FE
:102BB6003435415A00003334574535364144000018
:102BC60012021C0226020000000071044509D3010E
:102BD600BE040402E201F60100000000610630377F
:102BE6002E31312E323031390077726F6E67207395
:0A2BF600746570706572203D2000C8
:00000001FF
